{
  "contractName": "Ballot",
  "abi": [
    {
      "inputs": [
        {
          "internalType": "bytes32[]",
          "name": "proposalNames",
          "type": "bytes32[]"
        },
        {
          "internalType": "uint256",
          "name": "durationInMinutes",
          "type": "uint256"
        }
      ],
      "stateMutability": "nonpayable",
      "type": "constructor"
    },
    {
      "anonymous": false,
      "inputs": [
        {
          "indexed": true,
          "internalType": "address",
          "name": "voter",
          "type": "address"
        },
        {
          "indexed": true,
          "internalType": "uint256",
          "name": "proposal",
          "type": "uint256"
        }
      ],
      "name": "VoteCasted",
      "type": "event"
    },
    {
      "anonymous": false,
      "inputs": [
        {
          "indexed": true,
          "internalType": "address",
          "name": "voter",
          "type": "address"
        }
      ],
      "name": "VoterRegistered",
      "type": "event"
    },
    {
      "anonymous": false,
      "inputs": [
        {
          "indexed": true,
          "internalType": "uint256",
          "name": "winningProposal",
          "type": "uint256"
        }
      ],
      "name": "VotingEnded",
      "type": "event"
    },
    {
      "inputs": [],
      "name": "chairperson",
      "outputs": [
        {
          "internalType": "address",
          "name": "",
          "type": "address"
        }
      ],
      "stateMutability": "view",
      "type": "function",
      "constant": true
    },
    {
      "inputs": [
        {
          "internalType": "uint256",
          "name": "",
          "type": "uint256"
        }
      ],
      "name": "proposals",
      "outputs": [
        {
          "internalType": "bytes32",
          "name": "name",
          "type": "bytes32"
        },
        {
          "internalType": "uint256",
          "name": "voteCount",
          "type": "uint256"
        }
      ],
      "stateMutability": "view",
      "type": "function",
      "constant": true
    },
    {
      "inputs": [
        {
          "internalType": "address",
          "name": "",
          "type": "address"
        }
      ],
      "name": "voters",
      "outputs": [
        {
          "internalType": "uint256",
          "name": "weight",
          "type": "uint256"
        },
        {
          "internalType": "bool",
          "name": "voted",
          "type": "bool"
        },
        {
          "internalType": "address",
          "name": "delegate",
          "type": "address"
        },
        {
          "internalType": "uint256",
          "name": "vote",
          "type": "uint256"
        }
      ],
      "stateMutability": "view",
      "type": "function",
      "constant": true
    },
    {
      "inputs": [],
      "name": "votingClosed",
      "outputs": [
        {
          "internalType": "bool",
          "name": "",
          "type": "bool"
        }
      ],
      "stateMutability": "view",
      "type": "function",
      "constant": true
    },
    {
      "inputs": [],
      "name": "votingEnd",
      "outputs": [
        {
          "internalType": "uint256",
          "name": "",
          "type": "uint256"
        }
      ],
      "stateMutability": "view",
      "type": "function",
      "constant": true
    },
    {
      "inputs": [],
      "name": "votingStart",
      "outputs": [
        {
          "internalType": "uint256",
          "name": "",
          "type": "uint256"
        }
      ],
      "stateMutability": "view",
      "type": "function",
      "constant": true
    },
    {
      "inputs": [
        {
          "internalType": "address",
          "name": "voter",
          "type": "address"
        }
      ],
      "name": "giveRightToVote",
      "outputs": [],
      "stateMutability": "nonpayable",
      "type": "function"
    },
    {
      "inputs": [
        {
          "internalType": "address",
          "name": "to",
          "type": "address"
        }
      ],
      "name": "delegate",
      "outputs": [],
      "stateMutability": "nonpayable",
      "type": "function"
    },
    {
      "inputs": [
        {
          "internalType": "uint256",
          "name": "proposal",
          "type": "uint256"
        }
      ],
      "name": "vote",
      "outputs": [],
      "stateMutability": "nonpayable",
      "type": "function"
    },
    {
      "inputs": [],
      "name": "getProposalCount",
      "outputs": [
        {
          "internalType": "uint256",
          "name": "",
          "type": "uint256"
        }
      ],
      "stateMutability": "view",
      "type": "function",
      "constant": true
    },
    {
      "inputs": [
        {
          "internalType": "uint256",
          "name": "index",
          "type": "uint256"
        }
      ],
      "name": "getProposal",
      "outputs": [
        {
          "internalType": "bytes32",
          "name": "name",
          "type": "bytes32"
        },
        {
          "internalType": "uint256",
          "name": "voteCount",
          "type": "uint256"
        }
      ],
      "stateMutability": "view",
      "type": "function",
      "constant": true
    },
    {
      "inputs": [],
      "name": "winningProposal",
      "outputs": [
        {
          "internalType": "uint256",
          "name": "winningProposal_",
          "type": "uint256"
        }
      ],
      "stateMutability": "view",
      "type": "function",
      "constant": true
    },
    {
      "inputs": [],
      "name": "winnerName",
      "outputs": [
        {
          "internalType": "bytes32",
          "name": "winnerName_",
          "type": "bytes32"
        }
      ],
      "stateMutability": "view",
      "type": "function",
      "constant": true
    },
    {
      "inputs": [],
      "name": "isVotingActive",
      "outputs": [
        {
          "internalType": "bool",
          "name": "",
          "type": "bool"
        }
      ],
      "stateMutability": "view",
      "type": "function",
      "constant": true
    },
    {
      "inputs": [],
      "name": "getTimeRemaining",
      "outputs": [
        {
          "internalType": "uint256",
          "name": "",
          "type": "uint256"
        }
      ],
      "stateMutability": "view",
      "type": "function",
      "constant": true
    }
  ],
  "bytecode": "0x60806040523480156200001157600080fd5b5060405162000e1538038062000e1583398101604081905262000034916200011b565b600080546001600160a01b03191633178082556001600160a01b0316815260016020819052604090912055426003556200007081603c62000203565b6200007c9042620001e8565b6004556005805460ff1916905560005b8251811015620001125760026040518060400160405280858481518110620000c457634e487b7160e01b600052603260045260246000fd5b60209081029190910181015182526000918101829052835460018181018655948352918190208351600290930201918255919091015191015580620001098162000225565b9150506200008c565b5050506200026f565b600080604083850312156200012e578182fd5b82516001600160401b038082111562000145578384fd5b818501915085601f83011262000159578384fd5b815160208282111562000170576200017062000259565b8082026040518282820101818110868211171562000192576200019262000259565b604052838152828101945085830182870184018b1015620001b1578889fd5b8896505b84871015620001d5578051865260019690960195948301948301620001b5565b5097909101519698969750505050505050565b60008219821115620001fe57620001fe62000243565b500190565b600081600019048311821515161562000220576200022062000243565b500290565b60006000198214156200023c576200023c62000243565b5060010190565b634e487b7160e01b600052601160045260246000fd5b634e487b7160e01b600052604160045260246000fd5b610b96806200027f6000396000f3fe608060405234801561001057600080fd5b50600436106100f55760003560e01c8063609ff1bd11610097578063c08cc02d11610066578063c08cc02d146101d9578063c7f758a8146101e1578063dac6270d146101f4578063e2ba53f0146101fc576100f5565b8063609ff1bd1461019357806385a386351461019b5780639e7b8d61146101a3578063a3ec138d146101b6576100f5565b80632479ecb8116100d35780632479ecb81461014e5780632e4176cf1461016357806347cf6f76146101785780635c19a95c14610180576100f5565b80630121b93f146100fa578063013cf08b1461010f578063101158af14610139575b600080fd5b61010d610108366004610853565b610204565b005b61012261011d366004610853565b610343565b604051610130929190610893565b60405180910390f35b610141610371565b604051610130919061088a565b610156610377565b604051610130919061087f565b61016b610380565b604051610130919061086b565b61015661038f565b61010d61018e366004610825565b6103ab565b610141610599565b610141610632565b61010d6101b1366004610825565b610638565b6101c96101c4366004610825565b61071c565b6040516101309493929190610adc565b610141610750565b6101226101ef366004610853565b610756565b6101416107c3565b6101416107e4565b600354421015801561021857506004544211155b61023d5760405162461bcd60e51b815260040161023490610965565b60405180910390fd5b600254811061025e5760405162461bcd60e51b815260040161023490610a75565b336000908152600160205260409020805461028b5760405162461bcd60e51b8152600401610234906108a1565b600181015460ff16156102b05760405162461bcd60e51b815260040161023490610906565b6001818101805460ff19169091179055600280820183905581548154909190849081106102ed57634e487b7160e01b600052603260045260246000fd5b9060005260206000209060020201600101600082825461030d9190610b00565b9091555050604051829033907fd0e6c39f2e086dc49f1524b47725526a56945cd1ff661f37976f1725a1e5698690600090a35050565b6002818154811061035357600080fd5b60009182526020909120600290910201805460019091015490915082565b60035481565b60055460ff1681565b6000546001600160a01b031681565b600060035442101580156103a557506004544211155b90505b90565b60035442101580156103bf57506004544211155b6103db5760405162461bcd60e51b815260040161023490610965565b33600090815260016020526040902080546104085760405162461bcd60e51b8152600401610234906108cf565b600181015460ff161561042d5760405162461bcd60e51b815260040161023490610993565b6001600160a01b0382163314156104565760405162461bcd60e51b815260040161023490610aa5565b6001600160a01b0382811660009081526001602081905260409091200154610100900416156104cb576001600160a01b0391821660009081526001602081905260409091200154610100900490911690338214156104c65760405162461bcd60e51b815260040161023490610a07565b610456565b6001600160a01b03821660009081526001602081905260409091208054909111156104f557600080fd5b6001828101805460ff19168217610100600160a81b0319166101006001600160a01b0387160217905581015460ff161561057a5781546002828101548154811061054f57634e487b7160e01b600052603260045260246000fd5b9060005260206000209060020201600101600082825461056f9190610b00565b909155506105949050565b81548154829060009061058e908490610b00565b90915550505b505050565b600080805b60025481101561062d5781600282815481106105ca57634e487b7160e01b600052603260045260246000fd5b906000526020600020906002020160010154111561061b576002818154811061060357634e487b7160e01b600052603260045260246000fd5b90600052602060002090600202016001015491508092505b8061062581610b2f565b91505061059e565b505090565b60045481565b6000546001600160a01b031633146106625760405162461bcd60e51b8152600401610234906109bf565b6001600160a01b0381166000908152600160208190526040909120015460ff161561069f5760405162461bcd60e51b815260040161023490610a3e565b6001600160a01b038116600090815260016020526040902054156106d55760405162461bcd60e51b81526004016102349061092e565b6001600160a01b038116600081815260016020819052604080832091909155517fb6be2187d059cc2a55fe29e0e503b566e1e0f8c8780096e185429350acffd3dd9190a250565b600160208190526000918252604090912080549181015460029091015460ff82169161010090046001600160a01b03169084565b60025490565b6002546000908190831061077c5760405162461bcd60e51b815260040161023490610a75565b60006002848154811061079f57634e487b7160e01b600052603260045260246000fd5b90600052602060002090600202019050806000015481600101549250925050915091565b600060045442106107d6575060006103a8565b426004546103a59190610b18565b600060026107f0610599565b8154811061080e57634e487b7160e01b600052603260045260246000fd5b906000526020600020906002020160000154905090565b600060208284031215610836578081fd5b81356001600160a01b038116811461084c578182fd5b9392505050565b600060208284031215610864578081fd5b5035919050565b6001600160a01b0391909116815260200190565b901515815260200190565b90815260200190565b918252602082015260400190565b602080825260149082015273486173206e6f20726967687420746f20766f746560601b604082015260600190565b60208082526019908201527f596f752068617665206e6f20726967687420746f20766f746500000000000000604082015260600190565b6020808252600e908201526d20b63932b0b23c903b37ba32b21760911b604082015260600190565b6020808252601f908201527f566f74657220616c72656164792068617320766f74696e672072696768747300604082015260600190565b602080825260149082015273566f74696e67206973206e6f742061637469766560601b604082015260600190565b6020808252601290820152712cb7ba9030b63932b0b23c903b37ba32b21760711b604082015260600190565b60208082526028908201527f4f6e6c79206368616972706572736f6e2063616e2067697665207269676874206040820152673a37903b37ba329760c11b606082015260800190565b60208082526019908201527f466f756e64206c6f6f7020696e2064656c65676174696f6e2e00000000000000604082015260600190565b60208082526018908201527f54686520766f74657220616c726561647920766f7465642e0000000000000000604082015260600190565b602080825260169082015275092dcecc2d8d2c840e0e4dee0dee6c2d840d2dcc8caf60531b604082015260600190565b6020808252601e908201527f53656c662d64656c65676174696f6e20697320646973616c6c6f7765642e0000604082015260600190565b93845291151560208401526001600160a01b03166040830152606082015260800190565b60008219821115610b1357610b13610b4a565b500190565b600082821015610b2a57610b2a610b4a565b500390565b6000600019821415610b4357610b43610b4a565b5060010190565b634e487b7160e01b600052601160045260246000fdfea2646970667358221220636cc4c4a8c21d60701605a8cd2341c0102fc9b6ef89fcb3a1991774612e073864736f6c63430008000033",
  "immutableReferences": {},
  "source": "// SPDX-License-Identifier: GPL-3.0\r\npragma solidity >=0.7.0 <0.9.0;\r\n\r\n/// @title Voting with delegation.\r\ncontract Ballot {\r\n    // Voter structure\r\n    struct Voter {\r\n        uint weight;        // weight is accumulated by delegation\r\n        bool voted;         // if true, that person already voted\r\n        address delegate;   // person delegated to\r\n        uint vote;          // index of the voted proposal\r\n    }\r\n\r\n    // Proposal structure\r\n    struct Proposal {\r\n        bytes32 name;       // short name (up to 32 bytes)\r\n        uint voteCount;     // number of accumulated votes\r\n    }\r\n\r\n    address public chairperson;\r\n    mapping(address => Voter) public voters;\r\n    Proposal[] public proposals;\r\n    \r\n    uint public votingStart;\r\n    uint public votingEnd;\r\n    bool public votingClosed;\r\n\r\n    // Events\r\n    event VoterRegistered(address indexed voter);\r\n    event VoteCasted(address indexed voter, uint indexed proposal);\r\n    event VotingEnded(uint indexed winningProposal);\r\n\r\n    /// Create a new ballot to choose one of `proposalNames`.\r\n    constructor(bytes32[] memory proposalNames, uint durationInMinutes) {\r\n        chairperson = msg.sender;\r\n        voters[chairperson].weight = 1;\r\n        votingStart = block.timestamp;\r\n        votingEnd = block.timestamp + (durationInMinutes * 1 minutes);\r\n        votingClosed = false;\r\n\r\n        for (uint i = 0; i < proposalNames.length; i++) {\r\n            proposals.push(Proposal({\r\n                name: proposalNames[i],\r\n                voteCount: 0\r\n            }));\r\n        }\r\n    }\r\n\r\n    /// Give `voter` the right to vote on this ballot.\r\n    function giveRightToVote(address voter) external {\r\n        require(\r\n            msg.sender == chairperson,\r\n            \"Only chairperson can give right to vote.\"\r\n        );\r\n        require(\r\n            !voters[voter].voted,\r\n            \"The voter already voted.\"\r\n        );\r\n        require(voters[voter].weight == 0, \"Voter already has voting rights\");\r\n        voters[voter].weight = 1;\r\n        emit VoterRegistered(voter);\r\n    }\r\n\r\n    /// Delegate your vote to the voter `to`.\r\n    function delegate(address to) external {\r\n        require(\r\n            block.timestamp >= votingStart && block.timestamp <= votingEnd,\r\n            \"Voting is not active\"\r\n        );\r\n        \r\n        Voter storage sender = voters[msg.sender];\r\n        require(sender.weight != 0, \"You have no right to vote\");\r\n        require(!sender.voted, \"You already voted.\");\r\n        require(to != msg.sender, \"Self-delegation is disallowed.\");\r\n\r\n        while (voters[to].delegate != address(0)) {\r\n            to = voters[to].delegate;\r\n            require(to != msg.sender, \"Found loop in delegation.\");\r\n        }\r\n\r\n        Voter storage delegate_ = voters[to];\r\n        require(delegate_.weight >= 1);\r\n        \r\n        sender.voted = true;\r\n        sender.delegate = to;\r\n\r\n        if (delegate_.voted) {\r\n            proposals[delegate_.vote].voteCount += sender.weight;\r\n        } else {\r\n            delegate_.weight += sender.weight;\r\n        }\r\n    }\r\n\r\n    /// Give your vote to proposal `proposals[proposal].name`.\r\n    function vote(uint proposal) external {\r\n        require(\r\n            block.timestamp >= votingStart && block.timestamp <= votingEnd,\r\n            \"Voting is not active\"\r\n        );\r\n        require(proposal < proposals.length, \"Invalid proposal index\");\r\n        \r\n        Voter storage sender = voters[msg.sender];\r\n        require(sender.weight != 0, \"Has no right to vote\");\r\n        require(!sender.voted, \"Already voted.\");\r\n        \r\n        sender.voted = true;\r\n        sender.vote = proposal;\r\n        proposals[proposal].voteCount += sender.weight;\r\n        emit VoteCasted(msg.sender, proposal);\r\n    }\r\n\r\n    /// Returns the number of proposals.\r\n    function getProposalCount() external view returns (uint) {\r\n        return proposals.length;\r\n    }\r\n\r\n    /// Get proposal details.\r\n    function getProposal(uint index) external view \r\n        returns (bytes32 name, uint voteCount) \r\n    {\r\n        require(index < proposals.length, \"Invalid proposal index\");\r\n        Proposal storage p = proposals[index];\r\n        return (p.name, p.voteCount);\r\n    }\r\n\r\n    /// Computes the winning proposal.\r\n    function winningProposal() public view returns (uint winningProposal_) {\r\n        uint winningVoteCount = 0;\r\n        for (uint p = 0; p < proposals.length; p++) {\r\n            if (proposals[p].voteCount > winningVoteCount) {\r\n                winningVoteCount = proposals[p].voteCount;\r\n                winningProposal_ = p;\r\n            }\r\n        }\r\n    }\r\n\r\n    /// Returns the name of the winner.\r\n    function winnerName() external view returns (bytes32 winnerName_) {\r\n        winnerName_ = proposals[winningProposal()].name;\r\n    }\r\n\r\n    /// Check if voting period is active.\r\n    function isVotingActive() external view returns (bool) {\r\n        return block.timestamp >= votingStart && block.timestamp <= votingEnd;\r\n    }\r\n\r\n    /// Get time remaining in voting.\r\n    function getTimeRemaining() external view returns (uint) {\r\n        if (block.timestamp >= votingEnd) return 0;\r\n        return votingEnd - block.timestamp;\r\n    }\r\n}\r\n",
  "sourcePath": "C:\\Users\\nghia.n\\OneDrive - COLLECTIUS SYSTEMS PTE. LTD\\Documents\\1.Personal\\1.Learning\\1. Practice\\master\\blockchain\\voting-dapp\\contracts\\Ballot.sol",
  "compiler": {
    "name": "solc",
    "version": "0.8.0+commit.c7dfd78e.Emscripten.clang"
  },
  "schemaVersion": "3.4.16",
  "updatedAt": "2025-11-12T15:36:56.352Z",
  "networkType": "ethereum",
  "devdoc": {
    "kind": "dev",
    "methods": {},
    "title": "Voting with delegation.",
    "version": 1
  },
  "userdoc": {
    "kind": "user",
    "methods": {
      "constructor": {
        "notice": "Create a new ballot to choose one of `proposalNames`."
      },
      "delegate(address)": {
        "notice": "Delegate your vote to the voter `to`."
      },
      "getProposal(uint256)": {
        "notice": "Get proposal details."
      },
      "getProposalCount()": {
        "notice": "Returns the number of proposals."
      },
      "getTimeRemaining()": {
        "notice": "Get time remaining in voting."
      },
      "giveRightToVote(address)": {
        "notice": "Give `voter` the right to vote on this ballot."
      },
      "isVotingActive()": {
        "notice": "Check if voting period is active."
      },
      "vote(uint256)": {
        "notice": "Give your vote to proposal `proposals[proposal].name`."
      },
      "winnerName()": {
        "notice": "Returns the name of the winner."
      },
      "winningProposal()": {
        "notice": "Computes the winning proposal."
      }
    },
    "version": 1
  }
}