{
  "contractName": "Ballot",
  "abi": [
    {
      "inputs": [
        {
          "internalType": "bytes32[]",
          "name": "proposalNames",
          "type": "bytes32[]"
        },
        {
          "internalType": "uint256",
          "name": "durationInMinutes",
          "type": "uint256"
        }
      ],
      "stateMutability": "nonpayable",
      "type": "constructor"
    },
    {
      "anonymous": false,
      "inputs": [
        {
          "indexed": true,
          "internalType": "address",
          "name": "voter",
          "type": "address"
        },
        {
          "indexed": true,
          "internalType": "uint256",
          "name": "proposal",
          "type": "uint256"
        }
      ],
      "name": "VoteCasted",
      "type": "event"
    },
    {
      "anonymous": false,
      "inputs": [
        {
          "indexed": true,
          "internalType": "address",
          "name": "voter",
          "type": "address"
        }
      ],
      "name": "VoterRegistered",
      "type": "event"
    },
    {
      "anonymous": false,
      "inputs": [
        {
          "indexed": true,
          "internalType": "uint256",
          "name": "winningProposal",
          "type": "uint256"
        }
      ],
      "name": "VotingEnded",
      "type": "event"
    },
    {
      "inputs": [],
      "name": "chairperson",
      "outputs": [
        {
          "internalType": "address",
          "name": "",
          "type": "address"
        }
      ],
      "stateMutability": "view",
      "type": "function",
      "constant": true
    },
    {
      "inputs": [
        {
          "internalType": "uint256",
          "name": "",
          "type": "uint256"
        }
      ],
      "name": "proposals",
      "outputs": [
        {
          "internalType": "bytes32",
          "name": "name",
          "type": "bytes32"
        },
        {
          "internalType": "uint256",
          "name": "voteCount",
          "type": "uint256"
        }
      ],
      "stateMutability": "view",
      "type": "function",
      "constant": true
    },
    {
      "inputs": [
        {
          "internalType": "address",
          "name": "",
          "type": "address"
        }
      ],
      "name": "voters",
      "outputs": [
        {
          "internalType": "uint256",
          "name": "weight",
          "type": "uint256"
        },
        {
          "internalType": "bool",
          "name": "voted",
          "type": "bool"
        },
        {
          "internalType": "address",
          "name": "delegate",
          "type": "address"
        },
        {
          "internalType": "uint256",
          "name": "vote",
          "type": "uint256"
        }
      ],
      "stateMutability": "view",
      "type": "function",
      "constant": true
    },
    {
      "inputs": [],
      "name": "votingClosed",
      "outputs": [
        {
          "internalType": "bool",
          "name": "",
          "type": "bool"
        }
      ],
      "stateMutability": "view",
      "type": "function",
      "constant": true
    },
    {
      "inputs": [],
      "name": "votingEnd",
      "outputs": [
        {
          "internalType": "uint256",
          "name": "",
          "type": "uint256"
        }
      ],
      "stateMutability": "view",
      "type": "function",
      "constant": true
    },
    {
      "inputs": [],
      "name": "votingStart",
      "outputs": [
        {
          "internalType": "uint256",
          "name": "",
          "type": "uint256"
        }
      ],
      "stateMutability": "view",
      "type": "function",
      "constant": true
    },
    {
      "inputs": [
        {
          "internalType": "address",
          "name": "voter",
          "type": "address"
        }
      ],
      "name": "giveRightToVote",
      "outputs": [],
      "stateMutability": "nonpayable",
      "type": "function"
    },
    {
      "inputs": [
        {
          "internalType": "address",
          "name": "to",
          "type": "address"
        }
      ],
      "name": "delegate",
      "outputs": [],
      "stateMutability": "nonpayable",
      "type": "function"
    },
    {
      "inputs": [
        {
          "internalType": "uint256",
          "name": "proposalIndex",
          "type": "uint256"
        }
      ],
      "name": "vote",
      "outputs": [],
      "stateMutability": "nonpayable",
      "type": "function"
    },
    {
      "inputs": [
        {
          "internalType": "address",
          "name": "voterAddress",
          "type": "address"
        }
      ],
      "name": "getVoterInfo",
      "outputs": [
        {
          "internalType": "uint256",
          "name": "voterWeight",
          "type": "uint256"
        },
        {
          "internalType": "bool",
          "name": "hasVoted",
          "type": "bool"
        },
        {
          "internalType": "address",
          "name": "delegatedTo",
          "type": "address"
        },
        {
          "internalType": "uint256",
          "name": "votedProposal",
          "type": "uint256"
        }
      ],
      "stateMutability": "view",
      "type": "function",
      "constant": true
    },
    {
      "inputs": [],
      "name": "getProposals",
      "outputs": [
        {
          "internalType": "bytes32[]",
          "name": "proposalNames",
          "type": "bytes32[]"
        },
        {
          "internalType": "uint256[]",
          "name": "voteCounts",
          "type": "uint256[]"
        }
      ],
      "stateMutability": "view",
      "type": "function",
      "constant": true
    },
    {
      "inputs": [],
      "name": "getProposalCount",
      "outputs": [
        {
          "internalType": "uint256",
          "name": "",
          "type": "uint256"
        }
      ],
      "stateMutability": "view",
      "type": "function",
      "constant": true
    },
    {
      "inputs": [
        {
          "internalType": "uint256",
          "name": "index",
          "type": "uint256"
        }
      ],
      "name": "getProposal",
      "outputs": [
        {
          "internalType": "bytes32",
          "name": "proposalName",
          "type": "bytes32"
        },
        {
          "internalType": "uint256",
          "name": "voteCount",
          "type": "uint256"
        }
      ],
      "stateMutability": "view",
      "type": "function",
      "constant": true
    },
    {
      "inputs": [],
      "name": "winningProposal",
      "outputs": [
        {
          "internalType": "uint256",
          "name": "winningProposal_",
          "type": "uint256"
        }
      ],
      "stateMutability": "view",
      "type": "function",
      "constant": true
    },
    {
      "inputs": [],
      "name": "winnerName",
      "outputs": [
        {
          "internalType": "bytes32",
          "name": "winnerName_",
          "type": "bytes32"
        }
      ],
      "stateMutability": "view",
      "type": "function",
      "constant": true
    },
    {
      "inputs": [],
      "name": "isVotingActive",
      "outputs": [
        {
          "internalType": "bool",
          "name": "",
          "type": "bool"
        }
      ],
      "stateMutability": "view",
      "type": "function",
      "constant": true
    },
    {
      "inputs": [],
      "name": "getTimeRemaining",
      "outputs": [
        {
          "internalType": "uint256",
          "name": "",
          "type": "uint256"
        }
      ],
      "stateMutability": "view",
      "type": "function",
      "constant": true
    }
  ],
  "bytecode": "0x60806040523480156200001157600080fd5b506040516200104f3803806200104f83398101604081905262000034916200011b565b600080546001600160a01b03191633178082556001600160a01b0316815260016020819052604090912055426003556200007081603c62000203565b6200007c9042620001e8565b6004556005805460ff1916905560005b8251811015620001125760026040518060400160405280858481518110620000c457634e487b7160e01b600052603260045260246000fd5b60209081029190910181015182526000918101829052835460018181018655948352918190208351600290930201918255919091015191015580620001098162000225565b9150506200008c565b5050506200026f565b600080604083850312156200012e578182fd5b82516001600160401b038082111562000145578384fd5b818501915085601f83011262000159578384fd5b815160208282111562000170576200017062000259565b8082026040518282820101818110868211171562000192576200019262000259565b604052838152828101945085830182870184018b1015620001b1578889fd5b8896505b84871015620001d5578051865260019690960195948301948301620001b5565b5097909101519698969750505050505050565b60008219821115620001fe57620001fe62000243565b500190565b600081600019048311821515161562000220576200022062000243565b500290565b60006000198214156200023c576200023c62000243565b5060010190565b634e487b7160e01b600052601160045260246000fd5b634e487b7160e01b600052604160045260246000fd5b610dd0806200027f6000396000f3fe608060405234801561001057600080fd5b506004361061010b5760003560e01c806362564c48116100a2578063a3ec138d11610071578063a3ec138d14610205578063c08cc02d14610218578063c7f758a814610220578063dac6270d14610233578063e2ba53f01461023b5761010b565b806362564c48146101b157806385a38635146101c75780639e7b8d61146101cf5780639ed1f255146101e25761010b565b80632e4176cf116100de5780632e4176cf1461017957806347cf6f761461018e5780635c19a95c14610196578063609ff1bd146101a95761010b565b80630121b93f14610110578063013cf08b14610125578063101158af1461014f5780632479ecb814610164575b600080fd5b61012361011e366004610a4a565b610243565b005b610138610133366004610a4a565b610382565b604051610146929190610b04565b60405180910390f35b6101576103b0565b6040516101469190610afb565b61016c6103b6565b6040516101469190610af0565b6101816103bf565b6040516101469190610a62565b61016c6103ce565b6101236101a4366004610a1c565b6103ea565b6101576105d8565b6101b9610671565b604051610146929190610a76565b6101576107ff565b6101236101dd366004610a1c565b610805565b6101f56101f0366004610a1c565b6108d7565b6040516101469493929190610d16565b6101f5610213366004610a1c565b610913565b610157610947565b61013861022e366004610a4a565b61094d565b6101576109ba565b6101576109db565b600354421015801561025757506004544211155b61027c5760405162461bcd60e51b815260040161027390610b9f565b60405180910390fd5b600254811061029d5760405162461bcd60e51b815260040161027390610caf565b33600090815260016020526040902080546102ca5760405162461bcd60e51b815260040161027390610b12565b600181015460ff16156102ef5760405162461bcd60e51b815260040161027390610b77565b6001818101805460ff191690911790556002808201839055815481549091908490811061032c57634e487b7160e01b600052603260045260246000fd5b9060005260206000209060020201600101600082825461034c9190610d3a565b9091555050604051829033907fd0e6c39f2e086dc49f1524b47725526a56945cd1ff661f37976f1725a1e5698690600090a35050565b6002818154811061039257600080fd5b60009182526020909120600290910201805460019091015490915082565b60035481565b60055460ff1681565b6000546001600160a01b031681565b600060035442101580156103e457506004544211155b90505b90565b60035442101580156103fe57506004544211155b61041a5760405162461bcd60e51b815260040161027390610b9f565b33600090815260016020526040902080546104475760405162461bcd60e51b815260040161027390610b40565b600181015460ff161561046c5760405162461bcd60e51b815260040161027390610bcd565b6001600160a01b0382163314156104955760405162461bcd60e51b815260040161027390610cdf565b6001600160a01b03828116600090815260016020819052604090912001546101009004161561050a576001600160a01b0391821660009081526001602081905260409091200154610100900490911690338214156105055760405162461bcd60e51b815260040161027390610c41565b610495565b6001600160a01b038216600090815260016020819052604090912080549091111561053457600080fd5b6001828101805460ff19168217610100600160a81b0319166101006001600160a01b0387160217905581015460ff16156105b95781546002828101548154811061058e57634e487b7160e01b600052603260045260246000fd5b906000526020600020906002020160010160008282546105ae9190610d3a565b909155506105d39050565b8154815482906000906105cd908490610d3a565b90915550505b505050565b600080805b60025481101561066c57816002828154811061060957634e487b7160e01b600052603260045260246000fd5b906000526020600020906002020160010154111561065a576002818154811061064257634e487b7160e01b600052603260045260246000fd5b90600052602060002090600202016001015491508092505b8061066481610d69565b9150506105dd565b505090565b60025460609081908067ffffffffffffffff8111156106a057634e487b7160e01b600052604160045260246000fd5b6040519080825280602002602001820160405280156106c9578160200160208202803683370190505b5092508067ffffffffffffffff8111156106f357634e487b7160e01b600052604160045260246000fd5b60405190808252806020026020018201604052801561071c578160200160208202803683370190505b50915060005b818110156107f9576002818154811061074b57634e487b7160e01b600052603260045260246000fd5b90600052602060002090600202016000015484828151811061077d57634e487b7160e01b600052603260045260246000fd5b602002602001018181525050600281815481106107aa57634e487b7160e01b600052603260045260246000fd5b9060005260206000209060020201600101548382815181106107dc57634e487b7160e01b600052603260045260246000fd5b6020908102919091010152806107f181610d69565b915050610722565b50509091565b60045481565b6000546001600160a01b0316331461082f5760405162461bcd60e51b815260040161027390610bf9565b6001600160a01b0381166000908152600160208190526040909120015460ff161561086c5760405162461bcd60e51b815260040161027390610c78565b6001600160a01b0381166000908152600160205260409020541561088f576108d4565b6001600160a01b038116600081815260016020819052604080832091909155517fb6be2187d059cc2a55fe29e0e503b566e1e0f8c8780096e185429350acffd3dd9190a25b50565b6001600160a01b039081166000908152600160208190526040909120805491810154600290910154919360ff8216936101009092049091169190565b600160208190526000918252604090912080549181015460029091015460ff82169161010090046001600160a01b03169084565b60025490565b600254600090819083106109735760405162461bcd60e51b815260040161027390610caf565b60006002848154811061099657634e487b7160e01b600052603260045260246000fd5b90600052602060002090600202019050806000015481600101549250925050915091565b600060045442106109cd575060006103e7565b426004546103e49190610d52565b600060026109e76105d8565b81548110610a0557634e487b7160e01b600052603260045260246000fd5b906000526020600020906002020160000154905090565b600060208284031215610a2d578081fd5b81356001600160a01b0381168114610a43578182fd5b9392505050565b600060208284031215610a5b578081fd5b5035919050565b6001600160a01b0391909116815260200190565b604080825283519082018190526000906020906060840190828701845b82811015610aaf57815184529284019290840190600101610a93565b50505083810382850152845180825285830191830190845b81811015610ae357835183529284019291840191600101610ac7565b5090979650505050505050565b901515815260200190565b90815260200190565b918252602082015260400190565b602080825260149082015273486173206e6f20726967687420746f20766f746560601b604082015260600190565b60208082526019908201527f596f752068617665206e6f20726967687420746f20766f746500000000000000604082015260600190565b6020808252600e908201526d20b63932b0b23c903b37ba32b21760911b604082015260600190565b602080825260149082015273566f74696e67206973206e6f742061637469766560601b604082015260600190565b6020808252601290820152712cb7ba9030b63932b0b23c903b37ba32b21760711b604082015260600190565b60208082526028908201527f4f6e6c79206368616972706572736f6e2063616e2067697665207269676874206040820152673a37903b37ba329760c11b606082015260800190565b60208082526019908201527f466f756e64206c6f6f7020696e2064656c65676174696f6e2e00000000000000604082015260600190565b60208082526018908201527f54686520766f74657220616c726561647920766f7465642e0000000000000000604082015260600190565b602080825260169082015275092dcecc2d8d2c840e0e4dee0dee6c2d840d2dcc8caf60531b604082015260600190565b6020808252601e908201527f53656c662d64656c65676174696f6e20697320646973616c6c6f7765642e0000604082015260600190565b93845291151560208401526001600160a01b03166040830152606082015260800190565b60008219821115610d4d57610d4d610d84565b500190565b600082821015610d6457610d64610d84565b500390565b6000600019821415610d7d57610d7d610d84565b5060010190565b634e487b7160e01b600052601160045260246000fdfea2646970667358221220a0750d2a5854f19096b1d5f4d9e26e4715405056e221818b6bfac0a3a3af8d2a64736f6c63430008000033",
  "immutableReferences": {},
  "source": "// SPDX-License-Identifier: GPL-3.0\r\npragma solidity >=0.7.0 <0.9.0;\r\n\r\n/// @title Voting with delegation.\r\ncontract Ballot {\r\n    struct Voter {\r\n        uint weight;\r\n        bool voted;\r\n        address delegate;\r\n        uint vote;\r\n    }\r\n\r\n    struct Proposal {\r\n        bytes32 name;\r\n        uint voteCount;\r\n    }\r\n\r\n    address public chairperson;\r\n    mapping(address => Voter) public voters;\r\n    Proposal[] public proposals;\r\n    \r\n    uint public votingStart;\r\n    uint public votingEnd;\r\n    bool public votingClosed;\r\n\r\n    event VoterRegistered(address indexed voter);\r\n    event VoteCasted(address indexed voter, uint indexed proposal);\r\n    event VotingEnded(uint indexed winningProposal);\r\n\r\n    constructor(bytes32[] memory proposalNames, uint durationInMinutes) {\r\n        chairperson = msg.sender;\r\n        voters[chairperson].weight = 1;\r\n        votingStart = block.timestamp;\r\n        votingEnd = block.timestamp + (durationInMinutes * 1 minutes);\r\n        votingClosed = false;\r\n\r\n        for (uint i = 0; i < proposalNames.length; i++) {\r\n            proposals.push(Proposal({\r\n                name: proposalNames[i],\r\n                voteCount: 0\r\n            }));\r\n        }\r\n    }\r\n\r\n    // function giveRightToVote(address voter) external {\r\n    //     require(msg.sender == chairperson, \"Only chairperson can give right to vote.\");\r\n    //     require(!voters[voter].voted, \"The voter already voted.\");\r\n    //     require(voters[voter].weight == 0, \"Voter already has voting rights\");\r\n    //     voters[voter].weight = 1;\r\n    //     emit VoterRegistered(voter);\r\n    // }\r\n\r\n    function giveRightToVote(address voter) external {\r\n        require(\r\n            msg.sender == chairperson,\r\n            \"Only chairperson can give right to vote.\"\r\n        );\r\n        require(\r\n            !voters[voter].voted,\r\n            \"The voter already voted.\"\r\n        );\r\n        \r\n        // Check if voter already has rights - if yes, just return silently\r\n        if (voters[voter].weight > 0) {\r\n            return;\r\n        }\r\n        \r\n        voters[voter].weight = 1;\r\n        emit VoterRegistered(voter);\r\n        }\r\n        \r\n    function delegate(address to) external {\r\n        require(block.timestamp >= votingStart && block.timestamp <= votingEnd, \"Voting is not active\");\r\n        \r\n        Voter storage sender = voters[msg.sender];\r\n        require(sender.weight != 0, \"You have no right to vote\");\r\n        require(!sender.voted, \"You already voted.\");\r\n        require(to != msg.sender, \"Self-delegation is disallowed.\");\r\n\r\n        while (voters[to].delegate != address(0)) {\r\n            to = voters[to].delegate;\r\n            require(to != msg.sender, \"Found loop in delegation.\");\r\n        }\r\n\r\n        Voter storage delegate_ = voters[to];\r\n        require(delegate_.weight >= 1);\r\n        \r\n        sender.voted = true;\r\n        sender.delegate = to;\r\n\r\n        if (delegate_.voted) {\r\n            proposals[delegate_.vote].voteCount += sender.weight;\r\n        } else {\r\n            delegate_.weight += sender.weight;\r\n        }\r\n    }\r\n\r\n    function vote(uint proposalIndex) external {\r\n        require(block.timestamp >= votingStart && block.timestamp <= votingEnd, \"Voting is not active\");\r\n        require(proposalIndex < proposals.length, \"Invalid proposal index\");\r\n        \r\n        Voter storage sender = voters[msg.sender];\r\n        require(sender.weight != 0, \"Has no right to vote\");\r\n        require(!sender.voted, \"Already voted.\");\r\n        \r\n        sender.voted = true;\r\n        sender.vote = proposalIndex;\r\n        proposals[proposalIndex].voteCount += sender.weight;\r\n        emit VoteCasted(msg.sender, proposalIndex);\r\n    }\r\n\r\n    /// Get voter information for a specific address\r\n    function getVoterInfo(address voterAddress) external view \r\n        returns (uint voterWeight, bool hasVoted, address delegatedTo, uint votedProposal) \r\n    {\r\n        Voter storage v = voters[voterAddress];\r\n        return (v.weight, v.voted, v.delegate, v.vote);\r\n    }\r\n\r\n    /// Get all proposals at once\r\n    function getProposals() external view \r\n        returns (bytes32[] memory proposalNames, uint[] memory voteCounts) \r\n    {\r\n        uint count = proposals.length;\r\n        proposalNames = new bytes32[](count);\r\n        voteCounts = new uint[](count);\r\n        \r\n        for (uint i = 0; i < count; i++) {\r\n            proposalNames[i] = proposals[i].name;\r\n            voteCounts[i] = proposals[i].voteCount;\r\n        }\r\n        \r\n        return (proposalNames, voteCounts);\r\n    }\r\n\r\n    function getProposalCount() external view returns (uint) {\r\n        return proposals.length;\r\n    }\r\n\r\n    /// Get proposal details by index\r\n    function getProposal(uint index) external view \r\n        returns (bytes32 proposalName, uint voteCount) \r\n    {\r\n        require(index < proposals.length, \"Invalid proposal index\");\r\n        Proposal storage p = proposals[index];\r\n        return (p.name, p.voteCount);\r\n    }\r\n\r\n    function winningProposal() public view returns (uint winningProposal_) {\r\n        uint winningVoteCount = 0;\r\n        for (uint p = 0; p < proposals.length; p++) {\r\n            if (proposals[p].voteCount > winningVoteCount) {\r\n                winningVoteCount = proposals[p].voteCount;\r\n                winningProposal_ = p;\r\n            }\r\n        }\r\n    }\r\n\r\n    function winnerName() external view returns (bytes32 winnerName_) {\r\n        winnerName_ = proposals[winningProposal()].name;\r\n    }\r\n\r\n    function isVotingActive() external view returns (bool) {\r\n        return block.timestamp >= votingStart && block.timestamp <= votingEnd;\r\n    }\r\n\r\n    function getTimeRemaining() external view returns (uint) {\r\n        if (block.timestamp >= votingEnd) return 0;\r\n        return votingEnd - block.timestamp;\r\n    }\r\n}\r\n",
  "sourcePath": "C:\\Users\\nghia.n\\OneDrive - COLLECTIUS SYSTEMS PTE. LTD\\Documents\\1.Personal\\1.Learning\\1. Practice\\master\\blockchain\\voting-dapp\\contracts\\Ballot.sol",
  "compiler": {
    "name": "solc",
    "version": "0.8.0+commit.c7dfd78e.Emscripten.clang"
  },
  "schemaVersion": "3.4.16",
  "updatedAt": "2025-11-12T17:59:41.240Z",
  "networkType": "ethereum",
  "devdoc": {
    "kind": "dev",
    "methods": {},
    "title": "Voting with delegation.",
    "version": 1
  },
  "userdoc": {
    "kind": "user",
    "methods": {
      "getProposal(uint256)": {
        "notice": "Get proposal details by index"
      },
      "getProposals()": {
        "notice": "Get all proposals at once"
      },
      "getVoterInfo(address)": {
        "notice": "Get voter information for a specific address"
      }
    },
    "version": 1
  }
}